:100000000C94DC000C9404010C9404010C94040185
:100010000C9404010C9404010C9404010C9404014C
:100020000C9404010C9404010C9465040C94D70402
:100030000C9404010C9404010C9404010C9404012C
:100040000C9404010C9404010C9404010C9404011C
:100050000C9404010C9404010C9404010C941B04F2
:100060000C9404010C9404010C9404010C940401FC
:100070000C9404010C9404010C9404010C940401EC
:100080000C9404010C9404010C9404010C940401DC
:100090000C9404010C9404010C9404010C940401CC
:1000A0000C9404010C9404010C940401B901BC01EA
:1000B000AB01AF01B301DD01DD01DD01C001C40110
:1000C000C801CE01D201DD01D801080B00020202F5
:1000D00001000904000001020200000524001001D3
:1000E0000524010101042402060524060001070578
:1000F000810310004009040100020A000000070506
:1001000002024000000705830240000004030904C6
:1001100012010002EF0201404F1B06920001010292
:100120000301537061726B46756E00537061726BA0
:1001300046756E2050726F204D6963726F0000002B
:10014000000200090F0000030401000C0000000081
:10015000000000000000000000000000000000009F
:10016000250028002B002E00310000000000240094
:1001700027002A002D0030000404040404030405B1
:100180000202020204030202020206060606060634
:10019000040402020204040408020110408040101A
:1001A000204080408008020401804020100201109D
:1001B000801020404020190A11241FBECFEFDAE042
:1001C000DEBFCDBF21E0A2E5B1E001C01D92A33D9D
:1001D000B207E1F711E0A0E0B1E0E6E7F4E102C028
:1001E00005900D92A235B107D9F710E0CCEDD0E023
:1001F00004C02197FE010E942E0ACB3DD107C9F70A
:100200000E9444070C94390A0C9400008091CF019D
:100210008EBDEFECF1E0A0EDB1E081E0E23DF8074A
:1002200041F09D910DB407FEFDCF8EB59EBD81932B
:10023000F4CF0DB407FEFDCF8EB58093D2010895A3
:1002400090E0FC01E956FE4F2491FC01E858FE4F76
:100250008491882399F090E0880F991FFC01E6595A
:10026000FE4FA591B491FC01E45AFE4F8591949103
:100270008FB7F894EC91E22BEC938FBF08952FB7D2
:10028000F89483E08093E9009091E800892F8072D0
:1002900095FF04C09091F20080E4891B2FBF089560
:1002A000FC018091CE01811103C08FEF9FEF089573
:1002B0009FB7F89482E08093E9002091F20030E04B
:1002C0001216130614F421E030E02115310559F01F
:1002D000289884E68093CD018091F10080838091FD
:1002E000F200882319F09FBFC90108958BE680931F
:1002F000E800F9CF8091C50181110DC082E08093A3
:10030000C10184E08093C2011092C4011092C30124
:1003100081E08093C50181EC91E00895362F90E053
:10032000FC01E25CFE4F4491FC01E956FE4F249132
:10033000FC01E858FE4F8491882309F451C04423FE
:10034000E1F150E0FA013197EF30F105B0F5EA5AEA
:10035000FF4F0C942E0A909180009F7707C09091D8
:1003600080009F7D03C090918000977F90938000D4
:1003700024C094B59F7702C094B59F7D94BD1DC0E5
:10038000909190009F7707C0909190009F7D03C04F
:1003900090919000977F909390000FC09091C00033
:1003A0009F7703C09091C0009F7D9093C00005C0CF
:1003B0009091C200977F9093C200E82FF0E0EE0F7B
:1003C000FF1FE45AFE4FA591B4918FB7F894EC91BA
:1003D000311103C020952E2301C02E2B2C938FBFEB
:1003E00008953FB7F8948091BD019091BE01A0910E
:1003F000BF01B091C00126B5A89B05C02F3F19F0E1
:100400000196A11DB11D3FBFBA2FA92F982F882794
:10041000820F911DA11DB11DBC01CD0142E0660FEF
:10042000771F881F991F4A95D1F708958F929F9241
:10043000AF92BF92CF92DF92EF92FF926B017C015D
:100440000E94F1014B015C01C114D104E104F104EB
:10045000F1F00E94F101DC01CB0188199909AA0988
:10046000BB09883E9340A105B10570F321E0C21A93
:10047000D108E108F10888EE880E83E0981EA11CDF
:10048000B11CC114D104E104F10419F7DDCFFF90D0
:10049000EF90DF90CF90BF90AF909F908F90089596
:1004A00040915401509155012091520130915301D6
:1004B00042175307B4F49091E8009570E1F39091DE
:1004C000E80092FD19C08093F10080915401909151
:1004D000550101968F739927892B19F48EEF80931C
:1004E000E800809154019091550101969093550137
:1004F0008093540181E0089580E00895DF92EF92A7
:10050000FF920F931F93CF93DF93D82E8A017B0125
:10051000E40EF51EEB01CE15DF0571F0D7FE03C02A
:10052000FE01849101C088810E94500221968111B0
:10053000F2CF8FEF9FEF01C0C801DF91CF911F91E4
:100540000F91FF90EF90DF9008950F931F93CF933B
:10055000DF931F92CDB7DEB782E0898342E450E09B
:100560006AEC70E080E80E947E020E947A01DC0161
:1005700012960D911C9113970115110569F0D80180
:10058000ED91FC910280F381E02DBE016F5F7F4F02
:10059000C801099597FF07C089810F90DF91CF911E
:1005A0001F910F910895F80100851185E5CF6150E5
:1005B00030F02091F100FC0120830196F8CF2898BB
:1005C00084E68093CD010895CF92DF92EF92FF925F
:1005D0000F931F93CF93DF936C017A018B01C0E0DF
:1005E000D0E0CE15DF0589F0D8016D918D01D601DF
:1005F000ED91FC910190F081E02DC6010995892BC8
:1006000011F47E0102C02196ECCFC701DF91CF919A
:100610001F910F91FF90EF90DF90CF9008958F92F0
:100620009F92AF92BF92CF92DF92EF92FF920F9381
:100630001F93CF93DF935C016B017A0180910B01D3
:10064000882309F45BC08091CE01882309F456C049
:100650008091580180FF05C08091E0008260809306
:10066000E000E70110E00AEF83E0882E9AE3992E7C
:100670002097D9F10E943F0181110AC0015009F46D
:100680003DC061E070E080E090E00E941602F0CF93
:10069000282F30E0C217D3070CF48C2F4FB7F894F3
:1006A0008092E9009091E80095FF1DC0282F30E06E
:1006B000C21BD30BF601982F915020F081918093AB
:1006C000F100FACFC20ED31E112319F09092E80068
:1006D00009C08091E80085FD06C09092E80011E015
:1006E000209709F010E04FBFC3CF1111C3CF5D9821
:1006F00084E6809356011E141F0444F081E090E0CC
:10070000F5019383828380E090E001C0C701DF910F
:10071000CF911F910F91FF90EF90DF90CF90BF90FE
:10072000AF909F908F900895CF93DF931F92CDB796
:10073000DEB76983DC01ED91FC910280F381E02D4D
:1007400041E050E0BE016F5F7F4F09950F90DF9150
:10075000CF91089583E08093E9008091F20088238F
:1007600019F08AE38093E80008950E943F0190E029
:100770000895CF93DF931F92CDB7DEB7FC01848538
:10078000958597FD05C02FEF3FEF358724870BC078
:10079000CE0101960E945001019719F4898190E0E1
:1007A00002C08FEF9FEF0F90DF91CF9108950F93CD
:1007B0001F93CF93DF931F92CDB7DEB78C01FC015F
:1007C0008485958597FF0EC0CE0101960E94500149
:1007D000019719F4298130E002C02FEF3FEFF801B3
:1007E00035872487F801848595850F90DF91CF9117
:1007F0001F910F910895FC018485958597FD0BC08D
:100800009FB7F89482E08093E9008091F2009FBF47
:1008100090E0019608959FB7F89482E08093E900F4
:100820008091F2009FBF90E00895089580E090E0ED
:1008300008950E94340A1F920F920FB60F9211244E
:100840002F933F938F939F93AF93BF938091B90161
:100850009091BA01A091BB01B091BC013091B80157
:1008600023E0230F2D3720F40196A11DB11D05C0F3
:1008700026E8230F0296A11DB11D2093B801809395
:10088000B9019093BA01A093BB01B093BC018091D0
:10089000BD019091BE01A091BF01B091C001019630
:1008A000A11DB11D8093BD019093BE01A093BF0116
:1008B000B093C001BF91AF919F918F913F912F91C4
:1008C0000F900FBE0F901F9018951F920F920FB6AA
:1008D0000F9211248F939F938091E1009091E100FA
:1008E000937F9093E10083FF0FC01092E90091E0A5
:1008F0009093EB001092EC0092E39093ED00109235
:10090000CE0198E09093F00082FF20C093E0909396
:10091000E9009091F200992319F09AE39093E8008E
:1009200090915601992339F09091560191509093EE
:100930005601992389F19091CD01992339F0909135
:10094000CD0191509093CD01992341F184FF10C0C6
:100950008091E2008E7E81608093E2008091E100D0
:100960008F7E8093E100809158018E7E806111C05E
:1009700080FF16C08091E2008E7E80618093E2004D
:100980008091E1008E7E8093E100809158018E7EFF
:1009900081608093580104C05D9ACDCF289AD6CF4C
:1009A0009F918F910F900FBE0F901F9018951F92DF
:1009B0000F920FB60F921124CF92DF92EF92FF9217
:1009C0000F931F932F933F934F935F936F937F9357
:1009D0008F939F93AF93BF93EF93FF93CF93DF9347
:1009E000CDB7DEB76C97DEBFCDBF1092E900809126
:1009F000E80083FFEDC168E0CE0145960E94D70272
:100A000082EF8093E8008D8987FF05C09091E80010
:100A100090FFFCCF03C09EEF9093E800982F907654
:100A200009F0C6C09E892F89188D91110CC080389D
:100A300029F4809159018093F10002C01092F100D5
:100A40001092F10048C1422F50E0512B913051F4E7
:100A5000811141C14130510509F03DC180915901D9
:100A60008D7F0BC0933061F4811135C14130510548
:100A700009F031C1809159018260809359012BC1E5
:100A8000953041F48091E80080FFFCCF20682093EE
:100A9000E30021C1963009F05FC0EB8CFC8C109212
:100AA000E9001092550110925401123091F5109204
:100AB0005301109252010E94A50299E0BE016F5F9E
:100AC0007F4FDB01E92F1D92EA95E9F799831A839D
:100AD00091E09E8390EA98879AEF9987209154013C
:100AE00030915501275F3F4F3C832B838D831092BC
:100AF000E9001092550110925401F0925301E092D6
:100B0000520149E050E080E00E947E020E94A5026E
:100B1000E2C0F0925301E09252010E947A01DC019E
:100B20001296ED90FC901397E114F10409F4C0C003
:100B3000D701ED91FC910480F581E02DBE016B5E43
:100B40007F4FC7010995009719F00CF0C4C0C7C0CA
:100B5000F701E084F184E8CF973009F4C0C0983001
:100B600021F481E08093F100B6C0993009F0B3C060
:100B7000837009F0B4C0E1E2F1E081E021E036E306
:100B80009081992361F08093E9002093EB0091918B
:100B90009093EC003093ED008F5F873089F78EE7FC
:100BA0008093EA001092EA008F898093CE0193C06F
:100BB0008B8D9C8D1092E90010925501109254017A
:100BC0009093530180935201898D811156C08E8973
:100BD0009D89913A59F4813209F081C047E050E093
:100BE00064E071E080E00E947E0275C0913209F0FD
:100BF00076C0833289F4888D90E0982F88272F89DA
:100C0000822BA0E0B0E08093000190930101A093BB
:100C10000201B09303015FC0803269F48091E80063
:100C200082FFFCCF67E084E091E00E94D7028BEF67
:100C30008093E80006C0823209F04DC08F8980930E
:100C40000B0180915701882319F0EEEFFAE002C002
:100C5000E0E0F8E08091040190910501A091060187
:100C6000B0910701803B9440A105B10509F07BC01C
:100C700080910B0180FF93C076C00E947A01DC0155
:100C800012960D911C9113970115110541F1D80190
:100C9000ED91FC910190F081E02DBE016B5E7F4FE4
:100CA000C8010995811117C0F80100851185ECCFA5
:100CB000113009F44EC0133091F48F89882309F460
:100CC00045C0823081F440E862E18BE291E00E940D
:100CD0000707882321F08EEF8093E80079C081E236
:100CE0008093EB0075C0813029F440E868E082E22F
:100CF00091E0EDCF833099F70E947A01DC011296E2
:100D0000ED90FC9013978E010F5F1F4F6801E11467
:100D1000F10479F0D701ED91FC910680F781E02D87
:100D2000B801C7010995080F111DF701E084F1848E
:100D3000EECFD8011C92F60101900020E9F731971F
:100D4000BF016C197D0940E0C601C1CF6CE071E0C4
:100D500002C060E171E06115710509F2FB01449187
:100D600050E080E840CF0FB6F894A89580916000DD
:100D7000886180936000109260000FBEA895EE3FDE
:100D80002AE0F20739F08091FE0A9091FF0A9183E0
:100D90008083A1CF1092FF0A1092FE0A9CCFEE3FF3
:100DA0008AE0F80731F0808191819093FF0A809367
:100DB000FE0A87E797E7918380839BE088E10FB67F
:100DC000F894A895809360000FBE9093600083CF45
:100DD0006C960FB6F894DEBF0FBECDBFDF91CF91FA
:100DE000FF91EF91BF91AF919F918F917F916F9103
:100DF0005F914F913F912F911F910F91FF90EF9035
:100E0000DF90CF900F900FBE0F901F901895CF924C
:100E1000DF92EF92FF920F931F93CF93DF931F9276
:100E2000CDB7DEB7182F062FE42E862F880F8E5FE2
:100E300099830E94500283E00E945002F12EC12E3D
:100E40009981D92E8C2D8F19801798F4F601E7FE21
:100E500002C0849101C080810E945002182F80E05E
:100E60000E9450028123FFEFCF1ADF0A8111EACFDF
:100E700001C081E00F90DF91CF911F910F91FF9002
:100E8000EF90DF90CF900895789484B5826084BD10
:100E900084B5816084BD85B5826085BD85B581607E
:100EA00085BD80916E00816080936E0010928100FC
:100EB00080918100826080938100809181008160B7
:100EC0008093810080918000816080938000809178
:100ED0009100826080939100809191008160809365
:100EE0009100809190008160809390008091C1007A
:100EF00084608093C1008091C10082608093C100B2
:100F00008091C10081608093C1008091C3008160A5
:100F10008093C3008091C00082608093C000809164
:100F2000C20081608093C20080917A0084608093C7
:100F30007A0080917A00826080937A0080917A00B2
:100F4000816080937A0080917A00806880937A0033
:100F50001092CE0110925901109258018091D70041
:100F600081608093D70080EA8093D80089B5806142
:100F700089BD89B5826089BD09B400FEFDCF61E0FD
:100F800070E080E090E00E9416028091D8008F7C93
:100F900080618093D8008091E000807F8093E000A2
:100FA0008091E1008E7E8093E1008DE08093E200ED
:100FB000559A209AEEEFFFE7859194918B3F9C4DD7
:100FC00019F481E0809357018FEF9FEF90937501A3
:100FD00080937401CFB7F89480915A01811124C095
:100FE000E9E8F1E08491E8EAF1E09491E82FF0E09B
:100FF000EE0FFF1FE659FE4FA591B491EC91E92346
:1010000021F461E081E10E948E0181E10E942001D2
:101010008CB580618CBD8CB580648CBD8FE00E94E6
:10102000200180E10E94200180915A018F5F80930E
:101030005A01CFBF81E58CBD1DBC82E00E9420011A
:1010400088E00E94200183E10E94200182E10E9449
:10105000200187E00E94200186E00E94200185E0B7
:101060000E94200184E00E94200183E00E94200170
:1010700085E10E94200160E083E10E948E0160E032
:1010800082E10E948E0187EB80935E018DE6809362
:101090005D018BED80935C0182E080935B0180E0D9
:1010A00090E0FC01ED59FE4FDC01A55ABE4F2C919A
:1010B0002083019684309105A1F780E090E0FC0147
:1010C000E153FE4FDC01AD59BE4F2C9120830196B8
:1010D00084309105A1F790936201809361010E9491
:1010E000060161E082E10E948E0164E670E080E02A
:1010F00090E00E94160260E082E10E948E0161E0B1
:1011000083E10E948E0160E087E00E948E0160E032
:1011100086E00E948E0160E085E00E948E0160E022
:1011200084E00E948E0161E083E00E948E0161E014
:1011300082E00E948E0161E088E00E948E0160E002
:1011400085E10E948E0100E010E083E0E82EF12CA2
:1011500092E0C92ED12CAA24A394B12C88E691E068
:101160000E94FB03892BD1F388E691E00E94FB03E8
:10117000892B59F088E691E00E94B90380936701BA
:10118000682F88E691E00E949403809167018111A5
:1011900050C088E691E00E94FB03892BD1F388E6DA
:1011A00091E00E94FB03892B59F088E691E00E94B0
:1011B000B90380930D01682F88E691E00E949403A3
:1011C000C0910D01C13019F461E087E013C0C23055
:1011D00019F461E086E00EC0C33019F461E085E0E7
:1011E00009C0C43019F461E084E004C0C53021F4C2
:1011F00061E083E00E948E0180910C01813019F43E
:1012000060E087E012C0823019F460E086E00DC033
:10121000833019F460E085E008C0843011F460E0A8
:1012200004C0853021F460E083E00E948E01C09309
:101230000C0180916701813009F0A7C061E085E170
:101240000E948E0160E082E00E948E0160E088E0F2
:101250000E948E0188E691E00E94FB03892BD1F366
:1012600088E691E00E94FB03892B09F469C0C3E67C
:10127000D1E02FB7F8948091B9019091BA01A09173
:10128000BB01B091BC012FBF80937001909371019D
:10129000A0937201B0937301E0916801F09169012C
:1012A0000284F385E02D88E691E0099597FD10C052
:1012B000899381E0C736D807E1F644E050E063E661
:1012C00071E088E691E00E940F0380E090E026C084
:1012D0002FB7F8948091B9019091BA01A091BB0108
:1012E000B091BC012FBF409170015091710160918C
:1012F000720170917301841B950BA60BB70B409183
:101300006C0150916D0160916E0170916F018417B5
:101310009507A607B70708F4BFCFCFCFFC01E1536D
:10132000FE4FDC01AD59BE4F2C91208301968430D5
:101330009105A1F790936201809361010E940601DB
:1013400060E083E10E948E0161E082E10E948E01F3
:1013500060E082E10E948E0161E083E10E948E01E3
:10136000C0915F01D0916001C230D10529F461E0E4
:1013700088E00E948E0109C0C330D10531F061E0E0
:1013800082E00E948E01219791F78091670182305F
:1013900031F4B0926001A0925F0161E02CC0833013
:1013A00031F4D0926001C0925F0160E007C08430E8
:1013B00051F41092600110925F0161E082E00E949E
:1013C0008E0161E01BC0853019F460E085E117C033
:1013D000863049F444E050E063E671E088E691E04D
:1013E0000E940F031FC0873069F4F0926001E09201
:1013F0005F0160E082E00E948E0160E088E00E9470
:101400008E0110C0883071F4E0916801F09169019B
:101410000280F381E02D4AE250E067E271E088E665
:1014200091E009950115110509F498CE0E9400007C
:1014300095CEE8E6F1E01382128288EE93E0A0E018
:10144000B0E084839583A683B78382E191E09183A2
:1014500080838FEF9FEF958784870895EE0FFF1F9E
:101460000590F491E02D099481E090E0F8940C94BB
:06147000390AF894FFCFD9
:10147600FFFFFFFF00E1000000000000050500007F
:10148600000094030F03B503AA03FB03B903D703B4
:1014960000C1808100000050726F626563617264F2
:1014A600563220436F6E74726F6C6C6572204154B5
:1014B6006D656761333255345F35565F31364D4859
:0214C6007A00AA
:00000001FF
